{
  "contractName": "DummyContract",
  "abi": [
    {
      "constant": true,
      "inputs": [],
      "name": "value",
      "outputs": [
        {
          "name": "",
          "type": "uint256"
        }
      ],
      "payable": false,
      "stateMutability": "view",
      "type": "function"
    },
    {
      "constant": false,
      "inputs": [],
      "name": "incrementValue",
      "outputs": [],
      "payable": false,
      "stateMutability": "nonpayable",
      "type": "function"
    }
  ],
  "bytecode": "0x60806040527fffffffffffffffffffffffffffffffffffffffffffffffffffffffffffffff9c60005534801561003457600080fd5b5060cf806100436000396000f3fe6080604052600436106049576000357c0100000000000000000000000000000000000000000000000000000000900463ffffffff1680633bfd7fd314604e5780633fa4f245146062575b600080fd5b348015605957600080fd5b506060608a565b005b348015606d57600080fd5b506074609d565b6040518082815260200191505060405180910390f35b6000808154809291906001019190505550565b6000548156fea165627a7a72305820cf53fff631efc2cc94e2f20b7255fd6c12a7a81fe0168f27295e6dc98abb92790029",
  "source": "pragma solidity ^0.5.0;\n\n\ncontract DummyContract {\n    uint public value = 2**256 - 100;\n\n    function incrementValue() public {\n        value++;\n    }\n}",
  "sourcePath": "/Users/admin/Projects/bh2smith/multi-tx/contracts/DummyContract.sol",
  "compiler": {
    "name": "solc",
    "version": "0.5.0+commit.1d4f565a.Emscripten.clang"
  },
  "schemaVersion": "3.0.0-beta.2",
  "updatedAt": "2019-06-26T09:27:56.293Z",
  "devdoc": {
    "methods": {}
  },
  "userdoc": {
    "methods": {}
  }
}