{
  "contractName": "MultiCaller",
  "abi": [
    {
      "constant": false,
      "inputs": [
        {
          "name": "contractAddress",
          "type": "address"
        },
        {
          "name": "numCalls",
          "type": "uint256"
        },
        {
          "name": "functionName",
          "type": "string"
        }
      ],
      "name": "execute",
      "outputs": [
        {
          "name": "",
          "type": "bool"
        }
      ],
      "payable": false,
      "stateMutability": "nonpayable",
      "type": "function"
    }
  ],
  "bytecode": "0x608060405234801561001057600080fd5b506103d0806100206000396000f3fe608060405260043610610041576000357c0100000000000000000000000000000000000000000000000000000000900463ffffffff168063450eefae14610046575b600080fd5b34801561005257600080fd5b506101366004803603606081101561006957600080fd5b81019080803573ffffffffffffffffffffffffffffffffffffffff16906020019092919080359060200190929190803590602001906401000000008111156100b057600080fd5b8201836020820111156100c257600080fd5b803590602001918460018302840111640100000000831117156100e457600080fd5b91908080601f016020809104026020016040519081016040528093929190818152602001838380828437600081840152601f19601f820116905080830192505050505050509192919290505050610150565b604051808215151515815260200191505060405180910390f35b60008060019050600080600090505b858110156102ff578673ffffffffffffffffffffffffffffffffffffffff1685604051602401604051602081830303815290604052906040518082805190602001908083835b6020831015156101ca57805182526020820191506020810190506020830392506101a5565b6001836020036101000a03801982511681845116808217855250505050505090500191505060405180910390207bffffffffffffffffffffffffffffffffffffffffffffffffffffffff19166020820180517bffffffffffffffffffffffffffffffffffffffffffffffffffffffff83818316178352505050506040518082805190602001908083835b6020831015156102795780518252602082019150602081019050602083039250610254565b6001836020036101000a0380198251168184511680821785525050505050509050019150506000604051808303816000865af19150503d80600081146102db576040519150601f19603f3d011682016040523d82523d6000602084013e6102e0565b606091505b5050809250508280156102f05750815b9250808060010191505061015f565b5081151561039b576040517f08c379a00000000000000000000000000000000000000000000000000000000081526004018080602001828103825260278152602001807f4f6e65206f72206d6f7265206f6620746865207472616e73616374696f6e732081526020017f6661696c6564210000000000000000000000000000000000000000000000000081525060400191505060405180910390fd5b5050939250505056fea165627a7a72305820c5212dfbd36a04c736192f3b94e6d34c5775c21d4b705d4a2a1cc5a2c2b4cc200029",
  "source": "pragma solidity ^0.5.0;\n\n\ncontract MultiCaller {\n\n    function execute(address contractAddress, uint numCalls, string memory functionName) public returns (bool) {\n        bool success = true;\n        bool next;\n        for (uint i=0; i < numCalls; i++) {\n            (next, ) = contractAddress.call(abi.encodeWithSignature(functionName));\n            success = success && next;\n        }\n        require(success, \"One or more of the transactions failed!\");\n    }\n}",
  "sourcePath": "/Users/admin/Projects/bh2smith/multi-tx/contracts/MultiCaller.sol",
  "compiler": {
    "name": "solc",
    "version": "0.5.0+commit.1d4f565a.Emscripten.clang"
  },
  "schemaVersion": "3.0.0-beta.2",
  "updatedAt": "2019-06-26T09:27:56.294Z",
  "devdoc": {
    "methods": {}
  },
  "userdoc": {
    "methods": {}
  }
}